S0150000637573742D6578706F2D6E6F64652E73333764
S21400000000100020510900004D0900004D090000B5
S214000010C95B00004D0900004D0900004D090000B5
S2140000204D0900004D0900004D0900004D09000073
S2140000304D0900004D0900004D0900004D09000063
S2140000404D090000D57704004D0900004D09000059
S214000050656F04002D780400E1770400F97704004A
S214000060D9770400B10E0000890F00004D0900008A
S214000070DD8300004D0900004D090000DD02000090
S2140000804D0900004D090000B10F00004D090000A9
S2140000904D0900004D0900004D0900004D09000003
S2140000A04D0900004D0900004D0900004D090000F3
S2140000B031780400DD770400B96A0000697804002E
S2140000C04D0900001D6204004D0900004D090000A6
S2140000D04D0900004D0900004D0900004D090000C3
S2140000E04D0900004D0900004D0900004D090000B3
S2140000F04D0900004D0900004D0900004D090000A3
S2140001004D0900004D0900004D09000010B5054CD2
S214000110237833B9044B13B10448AFF300800123AE
S214000120237010BDD81300200000000060270500D3
S21400013008B5034B1BB103490348AFF3008008BD65
S21400014000000000DC13002060270500154B002B84
S21400015008BF134B9D46A3F5803A00218B460F46F9
S2140001601348144A121A4BF014F80F4B002B00D009
S21400017098470E4B002B00D0984700200021040023
S2140001800D000D48002802D00C48AFF300804AF05E
S2140001905BFF2000290000F03DFA4AF02FFF00BF69
S2140001A00000080000100020000000000000000012
S2140001B0D813002080760020000000000000000019
S2140001C010B586B00121274803F0A2FA012126487F
S2140001D003F09EFA00248DF810408DF811401F237E
S2140001E08DF812308DF813408DF814408DF81540B8
S2140001F0019402940394FF238DF8093021461B488E
S21400020003F072F98DF81300204603F0DFF98DF83D
S214000210120005238DF8103001238DF80A308DF872
S214000220063003238DF807308DF805304B238DF804
S21400023008304A238DF809300D4C04A9204603F0F7
S21400024075F901A9204603F0F3F8636C43F0010347
S2140002506364084B4FF40042C3F880211A6006B06E
S21400026010BD00BF4041050000D2040080841E007F
S2140002700020004000E100E0034B00221A70034B10
S21400028001229A60704700BFA07400200020004042
S21400029008B50022104602E05B4207E001323F2A22
S2140002A008DC0B4B53F82230002BF5DB9842F5DACE
S2140002B01846F3E74AF058FA0022064B4AF0BEFA10
S2140002C00022054B4AF0E4FB4AF0CAFC08BD00BF1A
S2140002D0A073002000001C40000034400F4B9A6CB6
S2140002E00F4B1A601A6840F6C41303FB02F31B1484
S2140002F00C490B600C4A1378DBB208680B4941F8CE
S214000300230013780133DBB213701378DBB2402B73
S21400031002D0024B01229A60704700BF00200040C6
S214000320A4740020A8740020A0740020A0730020ED
S214000330014B01221A707047F413002070B5A0B06C
S21400034006466822002106A84AF023FF0122002361
S214000350CDE906239DF87C300F22ADF862209DF88B
S2140003607D2042F001028DF87D2042F22222ADF877
S214000370602043F081038DF87C301E4C04AB94E87B
S214000380030083E80300082219460DF149004AF0ED
S214000390DCFE9DF87C3043F010038DF87C306D4613
S2140003A004F108030FCB85E80F00102229460AA89F
S2140003B04AF0CBFE9DF87C3043F004038DF87C3089
S2140003C00D4C20464BF0EDFA024621460EA84AF0A8
S2140003D0BCFE9DF87C3043F008038DF87C3006A9FF
S2140003E0304621F031FA1421304621F085FE20B047
S2140003F070BD00BF38C60400001000200CB400B565
S21400040083B004AB53F8042B01931DF07BFA03B0C2
S2140004105DF804EB02B0704708B521F075FA014BA1
S214000420186008BDF813002008B5024B186820F0C5
S21400043051FE08BDF813002010B584B000F084F813
S214000440114B186800F02AF9FFF7BAFE03A94FF41B
S2140004507A6006F00BF968B10B4C2068FFF76EFF68
S2140004600121206821F05EFA0121206821F089FD33
S21400047004B010BD0123019300230093034A03999F
S214000480034806F069F8E7E7F81300203103000098
S214000490D074002010B5254C206821F044FC20685C
S2140004A007F0D6FE00F064F818B9214B1B788BB91C
S2140004B010BD00F057F848B11E4800F04DF91B4B30
S2140004C0186800F00FF900F059F8EEE71A4800F047
S2140004D043F9F4E7164B00221A70FFF7D9FE174BC4
S2140004E0186000F03FF8D0B1144B1A68144C154948
S2140004F020464BF017FA204600F02EF90B4B1868F2
S21400050000F0F0F800F02EF858B10A4800F024F990
S214000510064B186800F0E6F8FFF7AEFEC8E70022C4
S214000520E4E7054800F018F9F2E700BFF8130020EA
S214000530F413002060C6040050C60400AC7400200B
S214000540B074002070C6040008B5002304220D21F4
S214000550032004F039FC002304220721052004F0C0
S21400056033FC08BD014B1878704700BFFD13002010
S214000570014B1878704700BFFC130020014B002287
S2140005801A707047FC130020074B4FF400521A6095
S214000590603380221A60054B1B7823B90123034A77
S2140005A01370034A137070479CA00046FD1300208A
S2140005B0FC130020084B4FF400521A606033802270
S2140005C01A60064B1B782BB1044B00221A70044BA2
S2140005D001221A70704700BF9CA00044FD13002043
S2140005E0FC130020084B4FF40052C3F8A8208022CA
S2140005F0C3F80821054A137883F001031370044BEF
S21400060001221A70704700BF00A00040FD130020B2
S214000610FC13002008B506F075FAFFF70DFF06F08C
S2140006207DFAFFF737FF05F039FCF8E770B50D46A1
S214000630084621F09EFA0446284621F09EFA241A1F
S214000640A4B2284621F099FA104E234632460146B7
S214000650284621F096FA002333550D4930464BF0D4
S2140006608EF960B10B4909484BF089F950B10A4937
S21400067006484BF084F920B9FFF7B4FF01E0FFF716
S21400068083FF70BDFFF796FFFBE700BF0014002056
S21400069094C6040088C60400A0C6040030B587B01F
S2140006A004460E4D3422002128464AF072FD1222DE
S2140006B0002101A84AF06DFD40F2BC43ADF81430AD
S2140006C02346074A2946204621F0C1FD01AA2946AD
S2140006D0204621F0C6FD07B030BD00BF041800203C
S2140006E02D06000070B590B006462C22002105A805
S2140006F04AF04FFD01AC2146134821F069F909ADD7
S21400070094E80F0085E80F0040F2BC43ADF83630A1
S2140007100021304621F08DFD044638B10B4B1A8877
S2140007200B4921F02CFA034630B11BB114B1204618
S21400073021F01DFA10B070BD05AB224605493046C3
S21400074021F099FD0346F0E780C60400001800205B
S214000750001600200418002010B504460146044880
S2140007604BF017F920464BF01CF9024B186010BDF1
S21400077000160020001800207047000008B504216D
S214000780112003F099FB0121084802F0C1FF032164
S214000790074803F091FB0321064803F08DFB032175
S2140007A0054803F089FB002008BD00BF30253E0049
S2140007B002001E00030020000500240008B5204BA0
S2140007C001225A641F4BDB6C1B0E0AD11E494AF6E7
S2140007D0E8520A601D48026842F0040202600022E5
S2140007E00A60012B26D91A4A136A23F4441343F4E9
S2140007F088131362A2F58042136843F48073136073
S21400080002F546522432136843F4F843136005F0A9
S2140008108FF800F093F805F037F805F055F8FFF775
S214000820ADFF05F041F800F07FF800F0D5FB05F0CD
S2140008309DFA08BD074A136843F400531360D2E7D5
S21400084000000E40B081E00F90310E4098310E400F
S21400085000400E4064310E4008B500F057F808BD61
S21400086008B505F0AFFD17F04EFA05F0ADF808BD77
S21400087008B504F0DBFF04F0E3FF07F0D7FC08BD83
S21400088008B5FFF7C9FD07F06BFCFFF7CDFD07F0D5
S214000890FBFD08BD704770477047704701207047E2
S2140008A00120704710B507F079FC0446FFF7F6FF05
S2140008B0034608B9184610BD2346FBE738B506F0D0
S2140008C02FF8044602F01AFD04280CD002280CD09B
S2140008D00025FFF7E5FF04280CD0022808D005B154
S2140008E00024204638BD0125F3E700250124F0E763
S2140008F00124F4E70024F4E718B1034A106000204E
S21400090070472520704700BF3818002010B5044CEB
S2140009100449206802F0E8FA2068FFF7EDFF10BDF2
S214000920301000200C10002008B50121024802F00B
S214000930EFFEFFF721FF08BD00350A0008B50121CC
S214000940014802F0E5FE08BD00350A00FEE700009B
S21400095010B500F06FF8074B074C1946074A04E03D
S21400096010680860043304310432A342F8D3FFF75A
S214000970EDFB00BF00100020D813002068270500FC
S2140009800048704700F04902114BD3F8943003F04A
S2140009900703023B032B0DD8DFE803F0050F020820
S2140009A00C4B18680BE00C4B186808E00B4B1868EB
S2140009B0400804E0094B186801E04FF40040044B7F
S2140009C0D3F80031C3F304230133B0FBF3F07047D0
S2140009D000400E4040110020381100203C1100203D
S2140009E008B5FFF7D1FF054BD3F80831C3F308234A
S2140009F00133B0FBF3F0024B186008BD00400E4018
S214000A0034110020014B1868704700BF38110020D1
S214000A1008B5064B1860064BD3F8943003F007036E
S214000A20022B00D008BDFFF7DBFFFBE738110020E4
S214000A3000400E40044B054A9A60D3F8882042F4E2
S214000A407002C3F88820704700ED00E00000000048
S214000A504FF4004070474FF47A707047014B1868A7
S214000A60704700BF401100200023036070470368F2
S214000A700B60016070470000064B1B681844064A6E
S214000A80904203D8034A1060184670474FF0FF3371
S214000A90FAE700BF4411002000000420F0B585B03E
S214000AA00E4614469DF83410654A1278002A00F067
S214000AB0B9800546072C00F2B8800A9A002A00F092
S214000AC0B6800B9A002A00F0B4800E9AB2F5006F3A
S214000AD000F3B180012852D05A4A02EB0412127B6E
S214000AE0002A00F0AA800022019202920392564F3A
S214000AF007EB4417002E47D1DFF84CE14FEA441CC1
S214000B0000204EF80C007860B860F860B87840F0C6
S214000B101000B870F87840F03000F87019B9C1B21B
S214000B2041F00301F97000930E9B013B46486101BA
S214000B30421830F801C063F30E1C20F801C00A9B6F
S214000B4093600B9B5360D3789DF83C1061F383034E
S214000B50D370012D35D0109B002B59D02046394933
S214000B6022018B18109C8C50119A5A6000249C60AD
S214000B705D733A46694604F0B7F9204653E00C9A8E
S214000B80002AA9D131484EE0DFF8BCE04FEA441C09
S214000B900EEB0C0200204EF80C0050609060D06007
S214000BA0907840F010009070D07840F00300D0703D
S214000BB00029B8D10EEB4412C1B241F03001D17019
S214000BC0B1E79446127B42F003028CF80C20DCF866
S214000BD00C20042161F39F02CCF80C200CF1100EBF
S214000BE09CE80F008EE80F00DCF81C206FF0030175
S214000BF061F39F02CCF81C200C9BCCF81430012E1D
S214000C00A9D10B9ACCF818200C9ACCF80420A2E7AD
S214000C10002DA3D10C4B03EB44139A786FF3041208
S214000C209A709BE70A4805B0F0BD0848FBE70748FE
S214000C30F9E70648F7E70548F5E70648F3E700BF93
S214000C40BC1900203C180020BC180020018000F0D1
S214000C50028000F0078000F0124B1B78F3B1F8B169
S214000C6010B5044603F06DFA0023072B12DC0E4A7B
S214000C7002EB0312127B0AB10133F6E723600A4A3D
S214000C801B01D11801240C730024D45003F05FFA22
S214000C90204602E003F05BFA044810BD04487047A3
S214000CA004487047BC1900203C180020048000F05F
S214000CB0028000F0018000F000B583B0144B1B6882
S214000CC0019300238DF8043003F03BFA114B1B7898
S214000CD033B9104B01221A7003F039FA002309E0E9
S214000CE003F035FA0C480FE00C4A02EB0312002121
S214000CF011730133072BF7DD04238DF807300DEB56
S214000D00030004F0C7F8002003B05DF804FB00BF42
S214000D10ACC60400BC190020038000F03C1800207C
S214000D2010B588B00E9C07940D9C06949DF8304034
S214000D3005940B9C04949DF8284003940024029488
S214000D40019300920B46024621462046FFF7A6FE78
S214000D5008B010BD10B588B00E9C07940D9C069484
S214000D609DF8304005940B9C04949DF8284003940D
S214000D7000240294019300920B460246012120466D
S214000D80FFF78CFE08B010BD08B50A4B1B785BB1A8
S214000D9007280BD8084B03EB00131B7B43B100213D
S214000DA004F06EF8002000E0044808BD0448FCE7A4
S214000DB00448FAE7BC1900203C180020028000F026
S214000DC0018000F0078000F008B50A4B1B785BB185
S214000DD007280BD8084B03EB00131B7B43B10121FC
S214000DE004F04EF8002000E0044808BD0448FCE784
S214000DF00448FAE7BC1900203C180020028000F0E6
S214000E00018000F0078000F0114B1B78BBB107286B
S214000E1017D8C1B10F4B03EB00131B7BABB11F28D8
S214000E2007D80D4B1A6AC0B2012303FA00F002423B
S214000E3002D10020087070470B70002070470748EA
S214000E40704707487047064870470648704700BF17
S214000E50BC1900203C18002000200E40028000F044
S214000E60018000F0078000F00C4B1B7873B1072858
S214000E700ED879B10A4B03EB00131B7B63B110B598
S214000E800C4604F087F82060002010BD0548704727
S214000E90054870470448704704487047BC1900204E
S214000EA03C180020028000F0018000F0078000F06F
S214000EB0F8B5194B1F6EDB6E1F4002D401260024C6
S214000EC002E0FEE701347600072C24D83E42F9D033
S214000ED0114B9E662301114AD358002BF2D002EB29
S214000EE00415A9680131A9606A682046984780F011
S214000EF00103DBB26A7B012AE4D1002BE2D0084B67
S214000F0003EB4413197B6FF3410119731A7F6FF3D8
S214000F1041021A77D6E7F8BD00200E403C180020A4
S214000F20BC18002010B504467CB194FAA4F0B0FAC0
S214000F3080F0C2B20123934024EA0304034B53F823
S214000F402230002BF0D09847EEE710BDC0190020E5
S214000F50054B4FF48022C3F880211A604FF480625C
S214000F60C3F880211A60704700E100E038B50446F7
S214000F700D4603F0E6F8034B43F8245003F0E7F879
S214000F8038BD00BFC019002008B5084BD3F82804A8
S214000F90D3F81C24104020F42A5020F02A004004E5
S214000FA0400CC3F82404FFF7BDFF08BD00A00040B6
S214000FB008B5084BD3F82804D3F81C24104020F4B6
S214000FC0AA4020F055000004000CC3F82404FFF7E4
S214000FD0A9FF08BD00A0004008B5034B1968034BE5
S214000FE0186841F0B5FD08BD4C11002048110020DE
S214000FF0B0F1FF3F02D010B101487047014870477A
S21400100024E000F021E000F0890800238B4206D29D
S2140010100268B2F1FF3F04D104300133F6E7012045
S2140010207047002070477047F8B506460F46940094
S214001030224604F01FF9FFF7DBFF054608B12846F5
S214001040F8BD2246394630464AF070F80028F6D0F9
S214001050004DF4E710E000F008B50B4610F0030F63
S21400106002D111F0030F0BD09200014618464AF049
S2140010706CF8002008BD01681960013A043304309A
S214001080002AF8D1F5E7000038B5054604F08AF8DE
S214001090FFF7AEFF044658B9074B5B6B1B0E0A33CF
S2140010A003F01F03012199402846FFF7ADFF08B162
S2140010B0204638BD014CFBE7B081E00F0EE000F0A3
S2140010C010B582B0044601A804F06CF99DF806300D
S2140010D023800122E270A270054B5B6B1B0E0A3365
S2140010E003F01F0302FA03F36360002002B010BD92
S2140010F0B081E00F08B503F0ADFF08BD08B503F0FA
S21400110099FF002008BD000008B503F00BF8014B5E
S214001110186008BD7875002008B5024B186803F003
S21400112005F808BD7875002008B50A46411801394B
S21400113004F0CCFC08BD0023436370470023032B58
S21400114007D8054A52F82320517F814202D0013346
S214001150F5E70022104670474020002090F8313016
S214001160022B01D000207047427E437F02EB4202F2
S2140011701101044A0A4403EBC2039B001868C0B27C
S214001180704700BF1CA0104290F8323063B9036865
S2140011900422DA6003681A6912F0020FFAD05A6F56
S2140011A042F002025A677047012B00D0704703686E
S2140011B05A6C12F0020FFAD104225A6003689A6839
S2140011C012F0020FFAD05A6D42F002025A65EDE7AD
S2140011D090F8323013B1012B09D070470268536F74
S2140011E023F00203536703680822DA607047036837
S2140011F05A6C12F0020FFAD15A6D22F002025A65AA
S214001200036808225A60E8E790F8323063B903684A
S2140012100122DA6003681A6912F0010FFAD05A6FD9
S21400122042F001025A677047012B00D070470368EE
S2140012305A6C12F0020FFAD101225A6003689A68BB
S21400124012F0010FFAD05A6D42F001025A65EDE72E
S21400125090F8323013B1012B09D070470268536FF3
S21400126023F00103536703680222DA6070470368BD
S2140012705A6C12F0020FFAD15A6D22F001025A652A
S214001280036802225A60E8E740B149B152B1B2F5AC
S214001290006F01D800207047034870470348704726
S2140012A00148704700487047037000F0027000F075
S2140012B00368D84A93420DD0D74A934200F0A982D9
S2140012C0D64A934200F01185D54A934200F07A87B9
S2140012D0D44870470B7A002B5ED0012B00F0C180FB
S2140012E0022B00F0C080032B00F0BF80042B00F020
S2140012F0BE80052B00F0BD80062B00F0BC80072BBF
S21400130000F0BB80082B00F0BA80092B00F0B980F3
S2140013100A2B00F0B8800B2B00F0B7800C2B00F0E7
S214001320B6800D2B00F0B5800E2B00F0B4800F2B8E
S21400133000F0B380102B00F0B280112B00F0B180CB
S214001340122B00F0B080132B00F0AF80142B00F0AF
S214001350AE80152B00F0AD80162B00F0AC80172B5E
S21400136000F0AB80182B00F0AA80192B00F0A980A3
S2140013701A2B00F0A8801B2B00F0A7801C2B00F077
S214001380A6801D2B00F0A5801E2B00F0A4801F2B2E
S21400139040F0A380052300E00023C3754B7A002BA2
S2140013A000F09D80012B00F0FF80022B00F0FE80F5
S2140013B0032B00F0FD80042B00F0FC80052B00F0D2
S2140013C0FB80062B00F0FA80072B00F0F980082B34
S2140013D000F0F880092B00F0F7800A2B00F0F6806A
S2140013E00B2B00F0F5800C2B00F0F4800D2B00F09A
S2140013F0F3800E2B00F0F2800F2B00F0F180102B04
S21400140000F0F080112B00F0EF80122B00F0EE8041
S214001410132B00F0ED80142B00F0EC80152B00F061
S214001420EB80162B00F0EA80172B00F0E980182BD3
S21400143000F0E880192B00F0E7801A2B00F0E68019
S2140014401B2B00F0E5801C2B00F0EE801D2B00F01F
S214001450ED801E2B00F0EC801F2B40F0EB8000236D
S2140014603EE0002399E7002397E7002395E7002353
S21400147093E7002391E701238FE701238DE70123FC
S2140014808BE7012389E7012387E7022385E7022309
S21400149083E7022381E702237FE702237DE7022317
S2140014A07BE7032379E7032377E7032375E7032323
S2140014B073E7032371E703236FE703236DE7052331
S2140014C06BE7052369E7052367E7052365E705233B
S2140014D063E7052361E705235FE7FF235DE7002356
S2140014E003760B7A002B00F0A780012B00F0098111
S2140014F0022B00F00881032B00F00781042B00F07C
S2140015000681052B00F00581062B00F00481072BD1
S21400151000F00381082B00F00281092B00F0018106
S2140015200A2B00F000810B2B00F0FF800C2B00F044
S214001530FE800D2B00F0FD800E2B00F0FC800F2BA4
S21400154000F0FB80102B00F0FA80112B00F0F980E1
S214001550122B00F0F880132B00F0F780142B00F00D
S214001560F680152B00F0F580162B00F0F480172B74
S21400157000F0F380182B00F0F280192B00F0F180B9
S2140015801A2B00F0F0801B2B00F0EF801C2B00F0D5
S214001590EE801D2B00F0ED801E2B00F0EC801F2B44
S2140015A040F0EB80072348E0002399E7002397E705
S2140015B0002395E7002393E7012391E701238FE7B4
S2140015C001238DE701238BE7012389E7022387E7C1
S2140015D0022385E7022383E7022381E702237FE7CE
S2140015E002237DE703237BE7032379E7032377E7DB
S2140015F0032375E7032373E7032371E703236FE7EA
S21400160005236DE705236BE7052369E7052367E7F1
S214001610052365E700000140000401400008014082
S214001620000C0140037000F0052359E7052357E737
S214001630052355E7FF2353E70023C3764B7A002B99
S21400164000F09D80012B00F0A680022B00F0A58004
S214001650032B00F0A480042B00F0A380052B00F0E1
S214001660A280062B00F0A180072B00F0A080082B9C
S21400167000F09F80092B00F09E800A2B00F09D80D2
S2140016800B2B00F09C800C2B00F09B800D2B00F0A9
S2140016909A800E2B00F099800F2B00F09880102B6C
S2140016A000F09780112B00F09680122B00F09580AA
S2140016B0132B00F09480142B00F09380152B00F071
S2140016C09280162B00F09180172B00F09080182B3C
S2140016D000F08F80192B00F08E801A2B00F08D8082
S2140016E01B2B00F08C801C2B00F08B801D2B00F039
S2140016F08A801E2B00F089801F2B40F088800023F4
S2140017003EE0012399E7022397E7032395E70423A6
S21400171093E7052391E70B238FE70C238DE70D2333
S2140017208BE70E2389E70F2387E7062385E7072342
S21400173083E7082381E709237FE70A237DE70B2356
S2140017407BE7092379E70A2377E70B2375E70C2362
S21400175073E70D2371E70E236FE70F236DE7002372
S2140017606BE7012369E7022367E7032365E70423A2
S21400177063E7052361E706235FE7FF235DE70123B1
S21400178003774B7C43768B7C4377CB7C83760B7DD1
S2140017908377002070470223F2E70323F0E7042351
S2140017A0EEE70523ECE70B23EAE70C23E8E70D2337
S2140017B0E6E70E23E4E70F23E2E70623E0E7072346
S2140017C0DEE70823DCE70923DAE70A23D8E70B235A
S2140017D0D6E70923D4E70A23D2E70B23D0E70C2366
S2140017E0CEE70D23CCE70E23CAE70F23C8E7002376
S2140017F0C6E70123C4E70223C2E70323C0E70423A6
S214001800BEE70523BCE70623BAE70723B8E7FF23AE
S214001810B6E70B7A002B5ED0012B00F0C180022BBE
S21400182000F0C080032B00F0BF80042B00F0BE80C9
S214001830052B00F0BD80062B00F0BC80072B00F0C7
S214001840BB80082B00F0BA80092B00F0B9800A2B69
S21400185000F0B8800B2B00F0B7800C2B00F0B680A1
S2140018600D2B00F0B5800E2B00F0B4800F2B00F08F
S214001870B380102B00F0B280112B00F0B180122B39
S21400188000F0B080132B00F0AF80142B00F0AE8079
S214001890152B00F0AD80162B00F0AC80172B00F057
S2140018A0AB80182B00F0AA80192B00F0A9801A2B09
S2140018B000F0A8801B2B00F0A7801C2B00F0A68051
S2140018C01D2B00F0A5801E2B00F0A4801F2B40F0DF
S2140018D0A380052300E00023C3754B7A002B00F09D
S2140018E09D80012B00F0FF80022B00F0FE80032B72
S2140018F000F0FD80042B00F0FC80052B00F0FB8040
S214001900062B00F0FA80072B00F0F980082B00F079
S214001910F880092B00F0F7800A2B00F0F6800B2BDE
S21400192000F0F5800C2B00F0F4800D2B00F0F38017
S2140019300E2B00F0F2800F2B00F0F180102B00F041
S214001940F080112B00F0EF80122B00F0EE80132BAE
S21400195000F0ED80142B00F0EC80152B00F0EB80EF
S214001960162B00F0EA80172B00F0E980182B00F009
S214001970E880192B00F0E7801A2B00F0E6801B2B7E
S21400198000F0E5801C2B00F0E4801D2B00F0E380C7
S2140019901E2B00F0E2801F2B40F0E18000233EE08B
S2140019A0002399E7002397E7002395E7002393E7B2
S2140019B0002391E701238FE701238DE701238BE7BF
S2140019C0012389E7012387E7022385E7022383E7CC
S2140019D0022381E702237FE702237DE702237BE7DA
S2140019E0032379E7032377E7032375E7032373E7E6
S2140019F0032371E703236FE703236DE705236BE7F4
S214001A00052369E7052367E7052365E7052363E7FD
S214001A10052361E705235FE7FF235DE700230376E1
S214001A200B7A002B00F09D80012B00F0DF80022B4C
S214001A3000F0DE80032B00F0DD80042B00F0DC805D
S214001A40052B00F0DB80062B00F0DA80072B00F079
S214001A50D980082B00F0D880092B00F0D7800A2BFD
S214001A6000F0D6800B2B00F0D5800C2B00F0D48035
S214001A700D2B00F0D3800E2B00F0D2800F2B00F041
S214001A80D180102B00F0D080112B00F0CF80122BCD
S214001A9000F0CE80132B00F0CD80142B00F0CC800D
S214001AA0152B00F0CB80162B00F0CA80172B00F009
S214001AB0C980182B00F0C880192B00F0C7801A2B9D
S214001AC000F0C6801B2B00F0C5801C2B00F0C480E5
S214001AD01D2B00F0C3801E2B00F0C2801F2B40F091
S214001AE0C18007233EE0002399E7002397E7002301
S214001AF095E7002393E7012391E701238FE701236E
S214001B008DE701238BE7012389E7022387E702237A
S214001B1085E7022383E7022381E702237FE7022388
S214001B207DE703237BE7032379E7032377E7032394
S214001B3075E7032373E7032371E703236FE70523A2
S214001B406DE705236BE7052369E7052367E70523AC
S214001B5065E7052363E7052361E705235FE7FF23C2
S214001B605DE70023C3764B7A002B7DD0012B7ED019
S214001B70022B7ED0032B7ED0042B7ED0052B7ED06E
S214001B80062B7ED0072B7ED0082B7ED0092B7ED04E
S214001B900A2B7ED00B2B7ED00C2B7ED00D2B7ED02E
S214001BA00E2B7ED00F2B7ED0102B7ED0112B7ED00E
S214001BB0122B7ED0132B7ED0142B7ED0152B7ED0EE
S214001BC0162B7ED0172B7ED0182B7ED0192B7ED0CE
S214001BD01A2B7ED01B2B7ED01C2B7ED01D2B7ED0AE
S214001BE01E2B7ED01F2B7ED100233EE00123B9E7BB
S214001BF00223B7E70323B5E70423B3E70523B1E7DA
S214001C000B23AFE70C23ADE70D23ABE70E23A9E7C5
S214001C100F23A7E70623A5E70723A3E70823A1E7E3
S214001C2009239FE70A239DE70B239BE7092399E7F0
S214001C300A2397E70B2395E70C2393E70D2391E7F9
S214001C400E238FE70F238DE700238BE7012389E719
S214001C50022387E7032385E7042383E7052381E739
S214001C6006237FE7FF237DE70123037789E5022329
S214001C70FBE70323F9E70423F7E70523F5E70B2340
S214001C80F3E70C23F1E70D23EFE70E23EDE70F2331
S214001C90EBE70623E9E70723E7E70823E5E7092359
S214001CA0E3E70A23E1E70B23DFE70923DDE70A235F
S214001CB0DBE70B23D9E70C23D7E70D23D5E70E2365
S214001CC0D3E70F23D1E70023CFE70123CDE7022395
S214001CD0CBE70323C9E70423C7E70523C5E70623A5
S214001CE0C3E70723C1E7FF23BFE70B7A002B5ED0CD
S214001CF0012B00F0C180022B00F0C080032B00F007
S214001D00BF80042B00F0BE80052B00F0BD80062BA4
S214001D1000F0BC80072B00F0BB80082B00F0BA80D8
S214001D20092B00F0B9800A2B00F0B8800B2B00F0CE
S214001D30B7800C2B00F0B6800D2B00F0B5800E2B74
S214001D4000F0B4800F2B00F0B380102B00F0B280B0
S214001D50112B00F0B180122B00F0B080132B00F096
S214001D60AF80142B00F0AE80152B00F0AD80162B44
S214001D7000F0AC80172B00F0AB80182B00F0AA8088
S214001D80192B00F0A9801A2B00F0A8801B2B00F05E
S214001D90A7801C2B00F0A6801D2B00F0A5801E2B14
S214001DA000F0A4801F2B40F0A3800A2300E000234D
S214001DB0C3754B7A002B00F09D80012B00F0FF804E
S214001DC0022B00F0FE80032B00F0FD80042B00F0B9
S214001DD0FC80052B00F0FB80062B00F0FA80072B1A
S214001DE000F0F980082B00F0F880092B00F0F7804F
S214001DF00A2B00F0F6800B2B00F0F5800C2B00F081
S214001E00F4800D2B00F0F3800E2B00F0F2800F2BE9
S214001E1000F0F180102B00F0F080112B00F0EF8026
S214001E20122B00F0EE80132B00F0ED80142B00F048
S214001E30EC80152B00F0EB80162B00F0EA80172BB9
S214001E4000F0E980182B00F0E880192B00F0E780FE
S214001E501A2B00F0E6801B2B00F0E5801C2B00F010
S214001E60E4801D2B00F0E3801E2B00F0E2801F2B89
S214001E7040F0E18000233EE0002399E7002397E747
S214001E80002395E7002393E7082391E708238FE7CD
S214001E9008238DE708238BE7012389E7012387E7DB
S214001EA0012385E7012383E7012381E705237FE7F5
S214001EB005237DE705237BE7052379E7052377E7F9
S214001EC0052375E7052373E7052371E705236FE709
S214001ED005236DE705236BE7052369E7052367E719
S214001EE0052365E7052363E70A2361E70A235FE71F
S214001EF0FF235DE7002303760B7A002B00F09D801E
S214001F00012B00F0DF80022B00F0DE80032B00F0B8
S214001F10DD80042B00F0DC80052B00F0DB80062B38
S214001F2000F0DA80072B00F0D980082B00F0D8806C
S214001F30092B00F0D7800A2B00F0D6800B2B00F080
S214001F40D5800C2B00F0D4800D2B00F0D3800E2B08
S214001F5000F0D2800F2B00F0D180102B00F0D08044
S214001F60112B00F0CF80122B00F0CE80132B00F048
S214001F70CD80142B00F0CC80152B00F0CB80162BD8
S214001F8000F0CA80172B00F0C980182B00F0C8801C
S214001F90192B00F0C7801A2B00F0C6801B2B00F010
S214001FA0C5801C2B00F0C4801D2B00F0C3801E2BA8
S214001FB000F0C2801F2B40F0C18002233EE00023C9
S214001FC099E7002397E7002395E7082393E708237C
S214001FD091E708238FE708238DE701238BE701238A
S214001FE089E7012387E7012385E7012383E70523A4
S214001FF081E705237FE705237DE705237BE70523A8
S21400200079E7052377E7052375E7052373E70523B7
S21400201071E705236FE705236DE705236BE70523C7
S21400202069E7052367E7052365E70A2363E70A23CD
S21400203061E70A235FE7FF235DE70523C3764B7A54
S214002040002B7DD0012B7FD0022B7FD0032B7FD09F
S214002050042B7FD0052B7FD0062B7FD0072B7FD07D
S214002060082B7FD0092B7FD00A2B7FD00B2B7FD05D
S2140020700C2B7FD00D2B7FD00E2B7FD00F2B7FD03D
S214002080102B7FD0112B7FD0122B7FD0132B7FD01D
S214002090142B7FD0152B7FD0162B7FD0172B7FD0FD
S2140020A0182B7FD0192B7FD01A2B7FD01B2B7FD0DD
S2140020B01C2B7FD01D2B7FD01E2B7FD01F2B7FD1BC
S2140020C005233EE00623B9E70723B7E70823B5E76D
S2140020D00923B3E70023B1E70123AFE70223ADE707
S2140020E00323ABE70623A9E70723A7E70823A5E70B
S2140020F00923A3E70A23A1E700239FE701239DE71F
S21400210003239BE7042399E7052397E7062395E730
S214002110072393E7082391E709238FE70A238DE730
S2140021200B238BE70C2389E70D2387E70E2385E730
S2140021300F2383E7002381E701237FE7FF237DE763
S21400214006230377FFF71DBB0723FAE70823F8E704
S2140021500923F6E70023F4E70123F2E70223F0E77A
S2140021600323EEE70623ECE70723EAE70823E8E77E
S2140021700923E6E70A23E4E70023E2E70123E0E792
S2140021800323DEE70423DCE70523DAE70623D8E7A4
S2140021900723D6E70823D4E70923D2E70A23D0E7A4
S2140021A00B23CEE70C23CCE70D23CAE70E23C8E7A4
S2140021B00F23C6E70023C4E70123C2E70223C0E7D4
S2140021C0FF23BEE70B7A002B5ED0012B00F0C18008
S2140021D0022B00F0C080032B00F0BF80042B00F021
S2140021E0BE80052B00F0BD80062B00F0BC80072BC0
S2140021F000F0BB80082B00F0BA80092B00F0B980F5
S2140022000A2B00F0B8800B2B00F0B7800C2B00F0E8
S214002210B6800D2B00F0B5800E2B00F0B4800F2B8F
S21400222000F0B380102B00F0B280112B00F0B180CC
S214002230122B00F0B080132B00F0AF80142B00F0B0
S214002240AE80152B00F0AD80162B00F0AC80172B5F
S21400225000F0AB80182B00F0AA80192B00F0A980A4
S2140022601A2B00F0A8801B2B00F0A7801C2B00F078
S214002270A6801D2B00F0A5801E2B00F0A4801F2B2F
S21400228040F0A3800A2300E00323C3754B7A002B9B
S21400229000F09D80012B00F0FF80022B00F0FE80F6
S2140022A0032B00F0FD80042B00F0FC80052B00F0D3
S2140022B0FB80062B00F0FA80072B00F0F980082B35
S2140022C000F0F880092B00F0F7800A2B00F0F6806B
S2140022D00B2B00F0F5800C2B00F0F4800D2B00F09B
S2140022E0F3800E2B00F0F2800F2B00F0F180102B05
S2140022F000F0F080112B00F0EF80122B00F0EE8043
S214002300132B00F0ED80142B00F0EC80152B00F062
S214002310EB80162B00F0EA80172B00F0E980182BD4
S21400232000F0E880192B00F0E7801A2B00F0E6801A
S2140023301B2B00F0E5801C2B00F0E4801D2B00F02A
S214002340E3801E2B00F0E2801F2B40F0E180032389
S2140023503EE0032399E7032397E7032395E7032348
S21400236093E7032391E703238FE703238DE70823EF
S2140023708BE7082389E7012387E7012385E7012305
S21400238083E7012381E701237FE701237DE7092314
S2140023907BE7092379E7022377E7022375E7022321
S2140023A073E7022371E702236FE702236DE7052335
S2140023B06BE7052369E7052367E7052365E705233C
S2140023C063E70A2361E70A235FE7FF235DE703234A
S2140023D003760B7A002B00F09D80012B00F0DF8047
S2140023E0022B00F0DE80032B00F0DD80042B00F0D3
S2140023F0DC80052B00F0DB80062B00F0DA80072B54
S21400240000F0D980082B00F0D880092B00F0D78088
S2140024100A2B00F0D6800B2B00F0D5800C2B00F09A
S214002420D4800D2B00F0D3800E2B00F0D2800F2B23
S21400243000F0D180102B00F0D080112B00F0CF8060
S214002440122B00F0CE80132B00F0CD80142B00F062
S214002450CC80152B00F0CB80162B00F0CA80172BF3
S21400246000F0C980182B00F0C880192B00F0C78038
S2140024701A2B00F0C6801B2B00F0C5801C2B00F02A
S214002480C4801D2B00F0C3801E2B00F0C2801F2BC3
S21400249040F0C18002233EE0032399E7032397E739
S2140024A0032395E7032393E7032391E703238FE7AB
S2140024B008238DE708238BE7012389E7012387E7B5
S2140024C0012385E7012383E7012381E701237FE7D3
S2140024D009237DE709237BE7022379E7022377E7D1
S2140024E0022375E7022373E7022371E702236FE7EF
S2140024F005236DE705236BE7052369E7052367E7F3
S214002500052365E70A2363E70A2361E70A235FE7F3
S214002510FF235DE70823C3764B7A002B7DD0012B83
S2140025207FD0022B7FD0032B7FD0042B7FD0052BB0
S2140025307FD0062B7FD0072B7FD0082B7FD0092B90
S2140025407FD00A2B7FD00B2B7FD00C2B7FD00D2B70
S2140025507FD00E2B7FD00F2B7FD0102B7FD0112B50
S2140025607FD0122B7FD0132B7FD0142B7FD0152B30
S2140025707FD0162B7FD0172B7FD0182B7FD0192B10
S2140025807FD01A2B7FD01B2B7FD01C2B7FD01D2BF0
S2140025907FD01E2B7FD01F2B7FD108233EE0092340
S2140025A0B9E70A23B7E70B23B5E70C23B3E70D23F8
S2140025B0B1E70E23AFE70F23ADE70223ABE7032314
S2140025C0A9E70623A7E70723A5E70823A3E7092328
S2140025D0A1E70A239FE70B239DE70E239BE70F2324
S2140025E099E7002397E7012395E7022393E7032360
S2140025F091E704238FE705238DE70B238BE70C2356
S21400260089E70D2387E70E2385E70F2383E700235B
S21400261081E701237FE7FF237DE709230377FFF7A1
S214002620B0B80A23FAE70B23F8E70C23F6E70D23E6
S214002630F4E70E23F2E70F23F0E70223EEE7032387
S214002640ECE70623EAE70723E8E70823E6E709239B
S214002650E4E70A23E2E70B23E0E70E23DEE70F2397
S214002660DCE70023DAE70123D8E70223D6E70323D3
S214002670D4E70423D2E70523D0E70B23CEE70C23C9
S214002680CCE70D23CAE70E23C8E70F23C6E70023CF
S214002690C4E70123C2E70223C0E7FF23BEE700BF6B
S2140026A0144B1B7873B10023032B11D8124A52F82F
S2140026B0232082421CD00133F6E70F4A002142F85D
S2140026C023100133032BF8D90A4B01221A70EAE7CC
S2140026D00023032B0AD8084A52F823200AB10133F4
S2140026E0F7E7054A42F82300002070470348704782
S2140026F0002070475020002040200020027000F08C
S214002700416200230B80416A4B80416A8B8080F8CF
S2140027102C3082621380826A5380826A938080F8AB
S2140027202D3080F82F30704738B504460D4601F03E
S21400273008FDA3889BB253B1638803EB83039A001A
S214002740083214442C6001F002FD002038BD2B60D6
S21400275001F0FDFC0048F9E70B7000F038B50446C0
S2140027600D4601F0EEFCA3889BB2BBB1628802EB7B
S21400277082029300083323442B6063885A1CE18846
S21400278092FBF1F301FB13239BB26380A388013B0A
S2140027909BB2A38001F0DBFC002038BD2B6001F06B
S2140027A0D6FC0148F9E700BF0B7000F010B582B008
S2140027B00446002936D001230422C17EC07D02F0E3
S2140027C003FB01230222217F207E02F0FDFA94F80B
S2140027D03130022B04D0032B17D0002002B010BDDE
S2140027E000230122617F607E02F0EEFA00230422BD
S2140027F0A17FA07E02F0E8FA607E617F012301934C
S21400280000930A4602F064FAE7E700230122617F9C
S214002810607E02F0D9FA00230422A17FA07E02F097
S214002820D3FADAE700231A46C17EC07D02F0CCFA5E
S21400283000231A46217F207E02F0C6FA94F8313033
S214002840022B0ED0032BC8D100231A46617F607E70
S21400285002F0BAFA00231A46A17FA07E02F0B4FA6C
S214002860BBE700231A46617F607E02F0ADFA0023C4
S2140028701A46A17FA07E02F0A7FA607E617F002341
S2140028800193012300930A4602F022FAA5E710B549
S21400289082B0FEF753FC20B1044690F83130022B8C
S2140028A001D002B010BDFEF759FC2075637D022BE7
S2140028B0F7D194F82E30002BF3D102A901F8013D90
S2140028C06068FEF7A1FA237D13B194F82F3033B178
S2140028D0002384F82F306068FEF776FAE1E70028D8
S2140028E0DFD19DF80730002BDBD06068FEF74CFA8E
S2140028F0D7E7000010B50446FEF7DEF90021201DDC
S214002900FEF7AAF940B9002104F10800FEF7A4F981
S214002910034610B1024B00E0014B184610BD00BF45
S2140029200E7000F038B5044601F00BFC0546636BEC
S214002930013B63631BB1284601F009FC38BD034A1E
S2140029400021012003F044FAF5E700BF00C70400A9
S21400295038B5044601F0F5FB0546636B33B1636B8F
S21400296001336363284601F0F2FB38BD024A0121B9
S214002970084603F02DFAF2E700C70400F8B504464F
S2140029800F46164601F0DDFB0546A3889BB2E2889B
S214002990934222D2238803EB830398000830142244
S2140029A03946204448F0D1FB228802EB820293008D
S2140029B008332344336023885A1CE18892FBF1F3E2
S2140029C001FB13239BB22380A38801339BB2A38011
S2140029D0284601F0BCFB0020F8BD0023336001F060
S2140029E0B6FB0148F8E700BF0A7000F070B586B085
S2140029F0012380F82C3090F83230B3B906681C36C4
S214002A000D460446FFF7A4FF2A686B682169A06894
S214002A1004940A4C03940024029401930123009327
S214002A203346FEF797F906B070BD012B03D000239E
S214002A3080F82C30F7E706681C36E1E75D310000C9
S214002A40F0B589B0012380F82D3090F8323043BBC2
S214002A50066834360D46044601F073FB07460DF152
S214002A601F011A4803F034FD10B99DF81F3033BB20
S214002A70384601F06CFB012784F838702046FFF7D3
S214002A8067FF2B686A68E16860680494104C0394DA
S214002A9000240294019200973246FEF741F909B0ED
S214002AA0F0BD012B03D0002380F82D30F7E7026835
S214002AB0136843F40053136006682836CAE70348D1
S214002AC003F0BCFC2046FFF72DFFD1E72C76002054
S214002AD0052B000010B590F83230012B0CD00068A2
S214002AE002F0F8FC044603F0BBFD00EBC0008300D8
S214002AF0B3FBF4F0013010BD006802F07BFA044628
S214002B00F1E7000070B584B0144603A9906AFFF799
S214002B100BFE05462046FFF7DDFF002301930093DA
S214002B2023461D4A01461D4803F0F2FC1C4B9D42FD
S214002B3020D0039B00221A619A6001F002FB064631
S214002B40039AD56825B15368126800212046A84725
S214002B5003A9A06AFFF702FEA06A83889BB263B946
S214002B60002384F82D3094F83230012B0DD03046F7
S214002B7001F0EDFA012004B070BD03A9FFF7D4FD03
S214002B8003992046FFF75CFFF1E72268136823F4F9
S214002B9000531360EBE700BFA52B00002C76002047
S214002BA00B7000F010B582B00C4691F83230012B55
S214002BB012D10B689B68C3F3C00393B92046FFF796
S214002BC089FF0023019300932346094A01460948DA
S214002BD003F09EFC02B010BD0B681B69C3F34013E4
S214002BE0EBE72046FFF79EFE022384F83830F1E735
S214002BF0A52B00002C76002090F832301BB1012B5C
S214002C0004D00020704703681869704703689B6803
S214002C1013F0020F1FD1002013F0010F01D040F077
S214002C20010013F0040F01D040F0080013F0080F65
S214002C3001D040F0200013F0100F01D040F040000B
S214002C4013F0200F01D040F0800013F0400FD9D0D1
S214002C5040F4005070470220DEE72DE9F04182B0D4
S214002C6004460D4616461F46002301930093406A0D
S214002C7083889BB283B94FF00008019B13B1B8F16B
S214002C80000F12D000233B6033602B602046FFF716
S214002C90B3FF02B0BDE8F08101A9FFF745FD80460D
S214002CA06946A068FEF7E0F8E7E75B68009A9B1ABB
S214002CB033603A60019B1B682B60E7E72DE9F0471D
S214002CC004460E461546FEF7DFFA804610B140462B
S214002CD0BDE8F087092001F04DFA0746A36A9B88F5
S214002CE09BB23BB194F82E3023B9002FF6D0FEF7F6
S214002CF0DFF8F3E794F8323093B923681B6903F0E2
S214002D000209B9F1000F02D12046FEF73DFA012371
S214002D1084F8303094F8323063B1012B1AD128E0B1
S214002D20012B02D04FF00009EEE723689B6803F002
S214002D300209E6E76F1E45B106F1010A3178206800
S214002D4002F055FC3D465646F4E723681B6913F02F
S214002D50200FFAD0B9F1000FB9D12046FEF738FAA5
S214002D60B5E706F1010A3178206802F055F93D46CC
S214002D7056466F1E002DF4D123689B6813F0080F8B
S214002D80FAD0E7E7A0B110B5044690F82E303BB174
S214002D9094F82E300133DBB284F82E30002010BDBC
S214002DA0FEF7DCF90028F3D16068FDF7EDFFEFE7EA
S214002DB000487047027000F0C8B110B5044690F89D
S214002DC02E30B3B190F82E30DBB2012B07D094F83A
S214002DD02E30013BDBB284F82E30002010BDFEF70B
S214002DE0BDF90028F3D16068FDF7EEFFEFE7024873
S214002DF070470248F2E700BF027000F0057000F06E
S214002E0090F83130022B03D0012B2FD000207047D2
S214002E10437D6BB1012B15D0037DEBB9837E807F9C
S214002E2003EB4303190101228240234B5A50EDE77E
S214002E30837E807F03EB43031901012282401E4BF1
S214002E405A50E3E7837E807F03EB43031901012298
S214002E5082401A4B5A50D9E7837E807F03EB4303A8
S214002E60190101228240154B5A50CFE730B583B086
S214002E700446037D83B102AD132305F8013DFFF739
S214002E8081FF012229462046FFF718FF2046FFF75C
S214002E9093FF002003B030BD02AD112305F8013DBD
S214002EA0FFF770FF012229462046FFF707FF20465E
S214002EB0FFF782FFEDE700BF0CA000440CA0004621
S214002EC010B504460749407FFEF750F8FEF740F875
S214002ED00023A3752375022363752046FFF790FF32
S214002EE010BD00BF8F280000F0B589B006460F461B
S214002EF001AC6E4D0FCD0FC495E8070084E80700BF
S214002F00002E00F0CD80002F00F0CC8034463C220E
S214002F100021304648F03DF93046FEF70CF93046C1
S214002F20FFF7BEFB0646002840F0BD803B7C84F8D9
S214002F3031303B682360002384F83230012384F864
S214002F4038303B685A4A93420AD05A4A934273D062
S214002F50594A934278D0594A93427DD0584EA2E0BF
S214002F60584B2362584BE3604FF440232361FA69C1
S214002F70B9692046FFF7C4FB7B6803937B89ADF8ED
S214002F801430BB89ADF81230BB7B8DF81030FB7B5C
S214002F908DF8163005238DF8113001214B4800F0CE
S214002FA0B7FB01214A4800F0B3FB0121206A00F07C
S214002FB0AFFB08A9002301F81C3D386802F0DEFAD2
S214002FC03A68936F23F4F85323F01F03397A43EAE1
S214002FD00123797A0B4393673B6803225A67394685
S214002FE02046FEF765F9064600285CD101212046FA
S214002FF0FFF7DCFB0646002855D101F0A2F805468F
S2140030003B7C032B30D0022B41D03B684FF0FF3285
S2140030109A643B7C032B3ED00421386802F070FA99
S2140030203B684FF44062DA602046FFF763FC0646D2
S214003030284601F08CF836E0264B2362264BE360E8
S2140030404FF45023236192E7244B2362244BE36022
S2140030504FF4602323618AE7224B2362224BE3600E
S2140030604FF47023236182E797F8203097F82110F9
S2140030703A6843EA0123D3673A68536E43F0040381
S21400308053663A68536F43F030035367BDE72046F4
S214003090FFF716FFB9E70521386802F031FABFE7F7
S2140030A0124E00E0064E304609B0F0BDD4C604000D
S2140030B0000001400004014000080140000C0140EF
S2140030C0037000F00042040001000C0040410500BF
S2140030D000350A000052040001000D0000620400E2
S2140030E001000E000072040001000F00027000F0E4
S2140030F02DE9F04186B00546884616461F46FEF77F
S214003100C3F8044618B1204606B0BDE8F081CDF8F5
S21400311004800296039604970F4B05936A4601A90E
S214003120686AFFF72BFC04460028ECD195F82C3093
S214003130002BE8D12846FEF767F800992846FFF7E7
S21400314055FC95F83130032BDDD000232B7528462F
S214003150FFF756FED7E700BF017000F070B582B0EB
S214003160144601A9506AFFF7DFFA05462046FFF726
S214003170D9FB3B4B9D4246D0019A94F832306BB94E
S2140031802168096C11F4007F08D0364B13610023C8
S214003190936023684FF400729A6415E06BB9216857
S2140031A0096C11F4807F08D02F4B136100239360C5
S2140031B023684FF480729A6406E0012B26D0012B18
S2140031C031D000231361936000F0BBFF06460199DF
S2140031D0CD6835B14A688B68D31A0A6809692046F3
S2140031E0A84701A9606AFFF7B9FA606A83889BB2AC
S2140031F033B301A9FFF798FA01992046FFF7F6FBCB
S214003200304600F0A4FF012002B070BD2168C96AF4
S21400321011F0800FD3D0134B136100239360236803
S21400322080225A63D0E72368DB6A13F0400FC8D0C9
S2140032300D4B136100239360236840225A63C3E753
S214003240012323752046FFF7DBFD002384F82C308E
S21400325094F83130032BD3D02046FDF7F9FFCFE7A3
S2140032600B7000F00D7000F00C7000F02DE9F041CE
S21400327086B00446884616461F46FEF705F80546FD
S214003280D8B9CDF804800296039604971A4B059396
S21400329094F83230ABB923681B6903F0020313B904
S2140032A02046FDF771FF6A4601A9A06AFFF766FB94
S2140032B0054610B994F82D3053B1284606B0BDE83F
S2140032C0F081012BECD123689B6803F00203E6E74C
S2140032D000F037FF0646A36A9B889BB21BB93046B0
S2140032E000F035FFE9E700992046FFF7A9FB012328
S2140032F084F83030F3E700BF017000F00C4B1B7809
S21400330013B10023012002E0012070470133032B94
S2140033100DD8084A52F82320002AF7D092F8381021
S2140033200229F3D1012082F838000846EEE77047FC
S214003330502000204020002030B442B11025364BEB
S214003340446B1C40354B984204D030BC7047002577
S214003350334BF5E702292BD007D9062945D081291A
S2140033604CD0032931D000231EE089B10129FAD1BF
S2140033702C4A13681B0E1B0203F4FE431168C1F3AC
S21400338003410B431268120D1201D2B213430BE035
S214003390244A136803F4FE43116801F00F010B433F
S2140033A0126802F0F0021343AB4023434363CCE7BA
S2140033B01D4A136803F4FE43116801F00F010B4326
S2140033C0126802F0F0021343EEE717490A68120E7D
S2140033D0120202F4FE420B68C3F303431A430B685F
S2140033E01B0D1B01DBB21343DEE7104B1A6802F01D
S2140033F00F021B6803F0F0031343D5E70A490A6877
S21400340002F4FE420B6803F00F031A430B6803F046
S214003410F0031343C8E700BFFFFF00800020004012
S2140034200080FFFF1082E00F1482E00F1882E00F8A
S21400343038B505460C460223836000228978FFF7DC
S2140034407BFF61782279130243EA0163607943EADD
S2140034500043E07843EAC003E07908B143F0005344
S214003460207A08B143F00403A07908B143F00203C0
S214003470607A08B143F00103F32A23D0A27812F051
S214003480800F29D143EA42132B616B6923F4F213B0
S21400349023F00703A27812F0800F20D1227843EAA7
S2140034A04243E27A0AB143F480436B61A27A05F1A3
S2140034B00473DB0002339B001A60EB6FD5F8803094
S2140034C0EB6838BDA278002AD8D10329D6D823F0D5
S2140034D0706343F08063D1E743F0E003D4E722F063
S2140034E080021343DAE7000010B50E4B984206D868
S2140034F00446B0F5FA4F03D24FF4FA4400E0094C04
S21400350051B160180138B0FBF4F000B101387F28E3
S21400351000D97F20C0B210BD034800F0C5FA0146AE
S214003520EFE700BF0024F4004041050070B50546F3
S2140035300C46CE783EB3036813F0800F29D00A23DA
S214003540AB602278A3781B0403F4FE0343EA02630D
S214003550360206F4FE4633436278134322790AB1F4
S21400356043F010032B60647900F0DCFD2B685C40B0
S21400357004F0C0045C402C6000F0D8FD2B6813F00B
S214003580800F10D170BD00210C48FFF7ADFF064636
S214003590D5E700210948FFF7A7FF00214FF4FA40BE
S2140035A0FFF7A2FFCBE7064800F07EFA054B9D42E8
S2140035B0E8D1054800F078FAE4E700BF0024F400FC
S2140035C0B80032000020004000D2040008B50346D0
S2140035D050B103F5742000F23F20074BA3FB0030E8
S2140035E0800C0138C0B208BD044800F05DFA0346FE
S2140035F00028EED10123ECE783DE1B4340410500A3
S2140036000C4B984208D90C4B984202D90221012251
S21400361004E001210A4601E000210A46074B1A6031
S214003620074AD2F8003123F0807343EA0163C2F8F8
S214003630003170470048E8010090D0034000C843BE
S21400364000400E40014B1868704700BF6C11002008
S21400365010B4124B5B68002300E00133042B0BD838
S2140036600F4A02EBC3021479CAB29442F5D10C4A4F
S21400367052F833208242F0D3052B0DD0084A02EBD5
S214003680C3035979054A536823F0407343EA01633C
S21400369053605DF8044B70470321F3E700000E40CB
S2140036A008C7040003300F2828BF0F200007704704
S2140036B008B5FDF769F9044BD3F80031C3F30423CA
S2140036C003FB000008BD00BF00400E4010B5074BCE
S2140036D01C6C41F671321A64FDF752F90021FFF7AF
S2140036E0B7FF14B1014B00221A6410BD00000E4053
S2140036F010B5064B1C6C41F671321A64FFF7A8FF32
S21400370014B1024B00221A6410BD00BF00000E4028
S214003710C0F30323013B092B3AD8DFE803F0050882
S2140037203939180B0E39111500221A4B11E00022F8
S214003730194B0EE00122194B0BE01022184B08E043
S2140037404FF48032174B04E00022174B01E00022B2
S214003750164BC0F30430A2B110B40E4CD4F844415A
S21400376014F0010F04D10B4CD4F840412242FAD198
S21400377003F1047300EBC300800001605DF8044BA6
S214003780704703F1047300EBC300800001607047CC
S214003790704700BF00400E40C0400E40E0400E4064
S2140037A0E8400E40F0400E4050410E40B0400E4003
S2140037B0C0F30313013B092B69D8DFE803F0050BC0
S2140037C0111B68682127415F334BD3F80001C0F313
S2140037D004207047304BD3F81401C0F30420704720
S2140037E02D4BD3F80001C0F30060431C0120984025
S2140037F001387047284BD3F80C01C0F308207047F7
S214003800254BD3F80801C0F308207047234B984295
S21400381004D0234B98420AD0002070471E4BD3F8A2
S214003820203103F00F0301209840013870471A4BEF
S214003830D3F82031C3F301130120984001387047B4
S214003840184B984207D003F5B01303F580539842FF
S2140038500AD000207047104BD3F82831C3F3011369
S21400386001209840013870470B4BD3F82801C0F36D
S2140038700120031D01209840013870470A4B9842EA
S21400388007D1054BD3F8300100F003007047002045
S21400389070470020704700BF00400E4080061600AC
S2140038A080162E0090171A00A009140008B5FFF71E
S2140038B07FFF013008BD000000F00F000138072828
S2140038C06DD8DFE800F0041B2C6C40516C5B3B4B62
S2140038D0D3F8943003F00703023B052B0CD8DFE83F
S2140038E003F0056003070B090220704704207047A9
S2140038F00B2070470C207047052070472F4BD3F8DD
S214003900803003F00703022B4DD0042B05D0012B8B
S21400391001D001207047032070470A207047274BCC
S214003920D3F8843003F00703013B032B09D8DFE804
S21400393003F0023C0604032070470A207047062066
S2140039407047012070471D4BD3F8883003F00703FB
S214003950022B2CD0042B05D0012B01D00120704760
S214003960032070470A207047144B1B6F13F00103A7
S2140039701FD00BB109207047012070470F4BD3F8BA
S2140039805C3103F03003202B05D0302B05D0102BF4
S21400399011D001207047042070470820704700208F
S2140039A070470320704702207047022070470220AD
S2140039B07047072070470720704700BF00400E4042
S2140039C010B50446FFF778FF1C4B9C4212D01C4BE8
S2140039D09C4215D01B4B9C4206D0013803282BD89E
S2140039E0DFE800F014171D1A174BD3F8800000F01C
S2140039F00700F2E7144BD3F8840000F00700ECE76A
S214003A00114BD3F8880000F00700E6E7FDF720F832
S214003A1013E0FDF723F810E0FDF71DF80DE0FCF7C6
S214003A20B3FF094BD3F80031C3F300635A1C0123DC
S214003A309340B0FBF3F000E0002010BD0300200030
S214003A400500240002001E0000400E4008B507488E
S214003A50FFF732FF072804D0092805D1FCF794FFAA
S214003A6008BDFFF7EFFDFBE70020F9E706000E00B4
S214003A7008B10020704710B504460A48FFF71CFF3F
S214003A80072805D0082809D0042804D0204601E0DD
S214003A90FFF7D8FD10BDFCF7B5FFFBE7FFF708FE04
S214003AA0F8E700BFB800320038B500F47813B3F575
S214003AB0B01F00F08E80054631D8B3F5202F76D0A3
S214003AC015D9B3F5602F00F0A7801AD9B3F5801F7B
S214003AD000F0A580B3F5A01F11D15448FFF770FF82
S214003AE0534BD3F8303103F00303D84053E0B3F51B
S214003AF0003F5FD0B3F5802F4ED0002B49D000207A
S214003B0049E0B3F5402FFAD1FCF73EFF484BD3F817
S214003B101431C3F304230133B0FBF3F03BE0B3F5F9
S214003B20101F75D012D9B3F5401F63D024D9B3F552
S214003B30481F77D0B3F5781FE1D1FCF725FF044680
S214003B402846FFF7B3FEB4FBF0F024E0B3F5F01F11
S214003B503BD0B3F5001F49D0B3F5D01FCFD13548C1
S214003B60FFF72EFF324BD3F82821C2F301120123B0
S214003B709340B0FBF3F00EE0B3F5381FBFD12E48EC
S214003B80FFF71EFF2A4BD3F82031C3F30113D840AA
S214003B9001E0FCF7F9FE38BDFCF7F6FE244BD3F83F
S214003BA00C31C3F308230133B0FBF3F0F3E7FCF763
S214003BB0EBFEF0E7FCF7E8FE1D4BD3F80831C3F345
S214003BC008230133B0FBF3F0E5E71B48FFF7F8FEE8
S214003BD0E1E71948FFF7F4FE154BD3F8202102F071
S214003BE00F0201239340B0FBF3F0D4E71148FFF730
S214003BF0E7FED0E70F48FFF7E3FE0D4BD3F828317A
S214003C00C3F301231A1D01239340B0FBF3F0C2E770
S214003C100648FFF7D5FEBEE7FFF718FFBBE7FFF73E
S214003C2011FDB8E70020FFF723FFB4E705002400E6
S214003C3000400E400300200002001E00014B1868E2
S214003C40704700BF3C1100200138032818D8DFE871
S214003C5000F00211070C0B4B186AC0F308007047FF
S214003C60084B186900F07F007047064B986900F013
S214003C707F007047034BD3F89C00C0F30A007047E0
S214003C800020704700400E4038B50138032811D890
S214003C90DFE800F0022B111EC1F308011D4B1B6864
S214003CA0002BFBD11C4A136A23F4FF7323F0010395
S214003CB01943116238BD01F07F01184B1B68002BB9
S214003CC0FBD1154A136923F07F0319431161F1E70D
S214003CD001F07F01124B1B68002BFBD10E4A936943
S214003CE023F07F0319439161E4E70C460A4DD5F8AB
S214003CF090306B6A23F0300343F010036B62C1F31D
S214003D00C310FFF7CFFC2B6B064919402143014334
S214003D102963CFE76828C84300400E406028C843A0
S214003D206428C84300F8FF0F124B5B6A13F0300F8D
S214003D3009D0202904D0302916D0A9B10E4A04E0B3
S214003D404FF4000201E04FF440020A4BD3F89030E3
S214003D5032EA0303F9D112F4800F08D0054BD3F8EA
S214003D60A000C0F3802070474FF44002EDE701202A
S214003D70704700BF00400E40FF33E10702280DD118
S214003D8010B529B1064B4FF48064C3F8A8405966B5
S214003D900AB9012010BDFFF7C7FFFBE701207047F7
S214003DA000400E40F8B504287FD8DFE800F0120D7A
S214003DB019030800022301260024354614E02023B8
S214003DC01026042405250FE0802340260624072518
S214003DD00AE04FF400734FF480760824092503E0C8
S214003DE0082304260224032500294DD0022830D0BB
S214003DF000212E4B1E662E4B23449B001B68002B77
S214003E00F9D0002A51D02A4C2C44A4002368002B59
S214003E10F9D0022849D1002947D0244B5B6A13F019
S214003E20010F2CD001222021FFF7A8FF0220FFF768
S214003E300BFF0546012200210220FFF7B3FF2946AB
S214003E400220FFF721FF194B1E662368002BFCD0CB
S214003E502BE0164B5B6A13F0300F0ED1154BDB6B65
S214003E60124B5B6A13F0010FC3D0104F7B6A23F02E
S214003E70300343F010037B62BBE70021B9E7002163
S214003E800220FFF751FFD1E708490B66074BD3F82E
S214003E9090100123A3401942F8D132B1034BD3F856
S214003EA090200123AB401A42F8D1F8BD00400E40E6
S214003EB08004F21000300E4070B504460D461128FE
S214003EC00CD0002604F00F04013C072C00F298806A
S214003ED0DFE804F01E701C966E9796A3042903D0A4
S214003EE005290BD00026EDE7FCF78CFD0646002ED4
S214003EF0E8D00021304600F075FCE3E7FFF79EFEB1
S214003F0006465F4B9842F2D80026DBE75D4C52E04F
S214003F10023D0A2D74D8DFE805F00615090F737305
S214003F207373731849000020042410E05648FFF706
S214003F3067FB022004460AE05348FFF761FB0320B4
S214003F40012404E00120032401E0032005240122CB
S214003F501146FFF727FFFFF7B9FB46B14B4B1B682F
S214003F6013F0400F03D14A4B1B68002BFBD1494B83
S214003F705C67FCF735FD0446FCF706FDFFF740FBE3
S214003F80424B1B6813F0400F03D1414B1B68002BBC
S214003F90FBD1414B5968C1F301412046FFF7A8FB0E
S214003FA076BB0121002000F01DFC29E00724D2E7A3
S214003FB03A4C00E03A4C013D092D21D8DFE805F0E7
S214003FC005070E2020152020201E002317E00122C2
S214003FD011460020FFF7E6FE022310E001221146FC
S214003FE01046FFF7DFFE012309E0FCF7CDFCFFF7E4
S214003FF007FB2C4B01221A60032300E004232360F6
S21400400070BD072D05D0092DFAD1224B01221A6763
S214004010F6E7204B00221A67F2E7013D072DEFD89E
S21400402001A353F825F000BF4940000001400000FE
S214004030014000005B40000001400000014000001D
S2140040404D4000006940000000210EE001221146AC
S2140040500420FFF7A7FE012107E0012211460220F7
S214004060FFF7A0FE022100E003210A4AD2F85C31E5
S21400407023F0300343EA0113C2F85C31C0E700BF07
S214004080002D310184400E400148E8013C300E40CE
S214004090C800C64300400E4000300E4088400E4028
S2140040A080400E400816C84370B504461120FFF73E
S2140040B003FC012200210220FFF774FE237C022B62
S2140040C029D00022154E736A23F00103134373624E
S2140040D02278134B1A60A288637A43EAC223F362FB
S2140040E0356B05F07F65E08845EAC025A07A054374
S2140040F0207A45EAC015FFF7D5FA28433063627B7D
S214004100A37B1B0143EA0233E27B1343227B43EA91
S2140041100243736370BD0122D4E700BF00400E4027
S214004120A004C843EFF3108072B6704700B962B6B9
S2140041307047602383F311887047002383F3118848
S2140041407047EFF31180602383F31188704780F384
S214004150118870474209064B53F8223000F01F00C2
S21400416023FA00F080F0010000F00100704700BF65
S21400417000E100E038B5EFF3108313F0010F35D1FE
S214004180C5B20446FFF7E6FF034680BB002C21DBE2
S21400419004F1604000F5614090F800134909EFF320
S2140041A0118212B1B1EB521F23D2134A5268C2F3E6
S2140041B00802E2B1103AD2B250B2002810DB00F189
S2140041C0604000F5614090F80023520991420ED3FA
S2140041D001230CE005F00F05084A515D4909DEE7AA
S2140041E002F00F020548825C5209EFE701231846E9
S2140041F038BD0123FBE700BF00ED00E014ED00E052
S214004200436823F01F030E2910D8DFE801F00808E2
S2140042100808080B0B0B080808080B0B0B001943C3
S21400422041607047194341F010014160704770B417
S214004230066A056A046A036A0E604D608C60CB608D
S214004240102A01D070BC7047056A046A026A036AC5
S2140042500D614C618A61CB61F4E730B589B00C46DC
S214004260154611F0030F10D06946FFF7E0FF082D42
S21400427005D020226946204646F067FF09E0102256
S2140042806946204646F061FF03E000910099FFF77B
S214004290CEFF09B030BD0000114B1B6813F0400F75
S2140042A016D10F4B1B6813F0400F03D10D4B1B6844
S2140042B0002BFBD10C4B1A68C2F301225B68C3F3D8
S2140042C001439A4205D8084A136823F01003136086
S2140042D07047054A136843F010031360704700BF29
S2140042E03C300E40C800C64300300E40074B1B68EB
S2140042F013F0100F05D0064B1B69C3F30443082BBD
S21400430000D07047034B044A1A60FAE700300E40AC
S21400431000400E403C110020C0EA21011A48C26C41
S214004320C2F30322194B1B8803F1280103EB510348
S2140043302833013202EB8201B3FBF1F3013B072B7A
S21400434028BF0723C16C21F0EE6141EA036343F402
S2140043508013C3640E4BB3F90030002B13DB9BB203
S21400436003F1280103EB51032833510801EB420205
S214004370B3FBF2F3072B28BF0723026D22F070026F
S21400438042EA03130365704700300E405A200020AF
S2140043905C200020024B1880024B1980704700BF3B
S2140043A05A2000205C20002010B1012804D070475D
S2140043B0034B044A9A657047014B034A9A65704757
S2140043C000300E4077402057372110B71A4BD3F8ED
S2140043D08031032929D8DFE801F002121518DBB274
S2140043E04AB91B0333F4704121D11448C16E21F43D
S2140043F070411943C166012A09D001207047C3F3F2
S2140044000723EDE7C3F30743EAE71B0EE8E71B03C2
S21400441033F470420DD10949D1F8EC2022F47042F1
S2140044201343C1F8EC30012070470020704700208D
S21400443070470020704700BFB081E00F00300E408C
S2140044401B02DAB10122134340F20112934237D025
S214004450B3F5817F14D340F20122934237D01CD9A2
S214004460B3F5407F41D040F20132934244D1244B11
S214004470D3F878311A0EC3F307431EE00022E2E7B2
S214004480012B14D053B3B3F5807F35D11C4BD3F832
S2140044906C311A0EC3F307430FE0B3F5007F2BD140
S2140044A0174BD3F87031C3F30722DBB205E0144B89
S2140044B0D3F87431C3F30722DBB203600A60704797
S2140044C00F4BD3F874311A0EC3F30743F5E70C4BC2
S2140044D0D3F87831C3F30722DBB2EEE7084BD3F804
S2140044E06C31C3F30722DBB2E7E7054BD3F8703134
S2140044F01A0EC3F30743E0E700221346DDE700BFCA
S214004500B081E00F10B5002854D0444B1B6813F060
S214004510400F07D1424B1B78C3F102021023934091
S214004520404A1361404AD2F8804104F0010445F63F
S2140045300E03C2F880313D4B1B6803F0010003F008
S2140045401001084303F04001084303F0040101434F
S21400455003F480730B431366304B1B6813F0400F55
S21400456003D1334B1B68002BFBD12E4B1B6813F07B
S214004570100F0DD02C4BD3F8403113F0807FF9D1BB
S2140045802C4B1A68284B1A612B4B1B78052B2FD007
S214004590294B197805293DD1244B1B6813F0010FD0
S2140045A002D1214B02221A661CB11F4B0022C3F80F
S2140045B0802110BD1C4BD3F890201C4B1A60112094
S2140045C0FFF77AF91C4B1870144B1B6813F0400F5A
S2140045D003D1174B1B68002BFBD1124B5B68C3F350
S2140045E001430F4A1370104B1A69124B1A60E0E72A
S2140045F0124B1868094B1B6813F0400F03D10C4B85
S2140046001B68002BFBD1074B5968C1F30141FFF72C
S2140046106FF8BDE71120FFF74FFCBDE73C300E40BA
S2140046206520002000300E4000400E405420002040
S214004630C800C643602000205E2000203C110020F9
S2140046407047000038B50446D8B9FFF725FE164A6D
S214004650136943F004031361FFF7F2FF134B1B6863
S21400466013F0100F11D130BF01F06AFDB4B1012074
S214004670FFF748FF0E4A136823F00043136084B127
S21400468038BD0020FFF73EFFDFE7FFF74BFD05468E
S21400469047F0CEFF2846FFF749FDE5E7FFF726FE81
S2140046A0E8E7FCF79DF9EBE700ED00E000300E4090
S2140046B04C310E4038B5044658BBFFF7EDFD1E4B97
S2140046C0D3F8802145F60E01C3F880114FF420710F
S2140046D0196612F0010F02D00022C3F88021174A93
S2140046E0136943F004031361FFF7AAFF144B1B681A
S2140046F013F0100F11D130BF01F022FDB4B101202C
S214004700FFF700FF0F4A136823F00043136084B1DD
S21400471038BD0020FFF7F6FECFE7FFF703FD05469E
S21400472047F086FF2846FFF701FDE5E7FFF7DEFDC9
S214004730E8E7FCF755F9EBE700400E4000ED00E037
S21400474000300E404C310E4008B50020FFF7DAFE70
S21400475008BD08B50120FFF7D5FE08BD1D4B1B6838
S21400476013F0400F34D11B4B1B6813F0400F03D1DE
S214004770194B1B68002BFBD1184B5B68C3F3014336
S214004780984225D070B50D460446154BD3F8003137
S214004790FCF7FAF80646022C11D0C4F102021023E8
S2140047A093400E4A136145B10A4B1B6813F0400F45
S2140047B003D1094B1B68002BFBD124B170BD02212D
S2140047C0FEF796FFE9E700213046FEF791FFF5E792
S2140047D0704700BF3C300E40C800C64300300E4055
S2140047E000400E4038B5114B1B6813F0400F0BD13C
S2140047F00D4650B10E4B1B7813B10E4B98420FD995
S21400480029460020FFF7AAFF38BD0B4BD3F800015E
S214004810C0F30420441CFCF7B7F804FB00F0E9E7FB
S21400482029460220FFF79AFFEEE700BF3C300E4015
S21400483064200020002D310100400E4008B50278AB
S214004840034B1A7001210020FFF7CCFF08BD00BF04
S21400485064200020074A136823F44073417843EA33
S214004860012313604378022B00D07047024B5B6A2B
S214004870FBE700BF00300E4000400E40134B9A6925
S21400488022F03F020378D3B104234178C9B1022154
S2140048900B438178B9B108210B43C178012900D0B8
S2140048A000210B4301790B431343084A93611368B5
S2140048B023F44033417943EA0143136070470023F1
S2140048C0E3E70021E4E70021E6E700BF00300E4002
S2140048D010B42B4B5A6B4AF6E8515963284B9B6F22
S2140048E013F0010FFAD1264B1B6C13F0030302D012
S2140048F0244901240C60D9B2814220D0032B00D079
S2140049001BB9431EDBB2012B1FD91D4B9B6F13F047
S214004910010FFAD11A490B6C23F0030303430B640F
S214004920174B9B6F13F0010FFAD1003018BF012010
S214004930144B1860012A1ED05DF8044B70470028FF
S214004940FAD1104B00221A60F6E70D4B4FF4002107
S214004950D9620B4B9B6F13F0010FFAD108490B6C11
S21400496023F0030343F001030B64054B5B6A13F467
S214004970002FFAD0C9E7024B00225A63DCE700BFDB
S21400498000300E40B40AC6432DE9F04F89B000232C
S214004990059306930793029303930493A0F5E163AC
S2140049A0B3F5966F00F2A580B0F5E16F8CBF4FF0BF
S2140049B001094FF0000965D94FF4966A4FF4E16596
S2140049C0B0F5E16F63D9534BD3F868311C0E0494ED
S2140049D0C3F3074307930192009104464E4EF76CCB
S2140049E0C7F301773B464A4602A905A8FFF728FD0C
S2140049F0D6F8EC30C3F3012843464A4603A906A876
S214004A00FFF71EFD651B0799049B5B1A03FB05F366
S214004A10B3FBFAF30B44DDF808B0DDF814C0ABEBDB
S214004A200C0606FB05F6B6FBFAF66644DDF80CE067
S214004A300698AEEB000202FB05F5B5FBFAF5054459
S214004A40049A9A425AD399425AD8AE455AD3A842A3
S214004A505AD8B3455AD3B4455AD8019A72B12E4A99
S214004A60D26D22F4FE4222F0020242EA0323B4F59B
S214004A70E16F15D902221343274AD365009B8BB9F1
S214004A80012337E04FF4167A4FF4966598E7214BEA
S214004A90D3F86831C3F307240494DBB207939AE78C
S214004AA00022E8E7002239464846FFF78FFC034617
S214004AB000B3012241464846FFF788FC0346C8B1CA
S214004AC03246AE4238BF2A46E72A28BFE7221249B6
S214004AD0496E21F4FF7121F0010141EA4202B4F56A
S214004AE0E16F04D901210A430B494A6602E000211E
S214004AF0F9E70023184609B0BDE8F08F0023F9E770
S214004B000023F7E70023F5E70023F3E70023F1E7A8
S214004B100023EFE7B081E00F00300E4008B5224AD0
S214004B20136F03F00703D26C12F0010F08D0012BAD
S214004B3006D9132821D91438132820D8082325E0AD
S214004B40194AD26C12F0010F01D1012B08D9164A6E
S214004B50D26C12F0010F18D0012B08D9002315E0F3
S214004B6009280ED90A3809280DD808230EE0272868
S214004B7001D910230AE0082308E0042306E01023E6
S214004B8004E0042302E0102300E00023013B1A03A4
S214004B9042EA03220449CB6C23F47F431343CB64DD
S214004BA0FFF7BCFB08BD00BF00300E4008B5064B43
S214004BB01B68064A136F23F0070318431067044B5D
S214004BC01888FFF7ABFF08BD8009C64300300E40CB
S214004BD05820002008B5084AD36E43F08073D36689
S214004BE0064B1B681BB90020FFF7E0FF08BD04203A
S214004BF0FFF7DCFFFAE700BF00300E408009C6432F
S214004C0038B5304B02229A639B6B03F00F03934236
S214004C1002D00025284638BDB0F90C10C3884A2BB0
S214004C2009D9B3F5FA7F42D340F6C312934241D86E
S214004C304FF0005200E00022224BDB6C23F0405382
S214004C4023F00103002938DB012104460A431343FD
S214004C501C4AD364D2F8EC3043F44073C2F8EC300C
S214004C608288194B1A80FFF7B5FFB4F90C1020891B
S214004C70FFF790FBA088FFF751FFA07BFFF794FBA0
S214004C80012211466088FFF77FFE05460028C1D046
S214004C900C4AD36B43F48063D3636078FFF718FE47
S214004CA0A37A202B0BD00022084B1A60B2E74FF0F5
S214004CB08052C1E74FF04052BEE70021C5E701220F
S214004CC0F2E700BF00300E40582000209407C6438D
S214004CD02DE9F8430C4616461F46072A3ED8930091
S214004CE00F2505FA03F800FA03F5FFF71BFA2E4B1B
S214004CF01A68554005EA080555401D60FFF716FA84
S214004D004FF00008072E3ED94FEA8808032505FA1B
S214004D1008F504F0030404FA08F4FFF703FA234B3B
S214004D201A6854402C4054401C60FFF7FFF9204B93
S214004D3033449B001F601F4B33449B009DF820208C
S214004D401A600123B3401C4AC2F824341B4B334478
S214004D509B009DF824201A60BDE8F883A2F108089D
S214004D604FEA88030F2505FA03F900FA03F5FFF763
S214004D70D9F9134B1A68554005EA090555401D60D8
S214004D80FFF7D4F9BEE7B30003259D4004F0030403
S214004D909C40FFF7C7F90B4B1A6854402C40544010
S214004DA01C60FFF7C3F9C2E700A400400CA4004053
S214004DB080208510A020851000A00040402185108E
S214004DC004A4004008A40040F0B414463AB143B32B
S214004DD000EB4002160101258D40264A9551072911
S214004DE027D8254E45002F183A01324452688F00C6
S214004DF04FF00F0C0CFA07FC22EA0C0204FA07F735
S214004E003A4305442F013E44726044B94BBB00EB65
S214004E1040000201012303FA01F1184B9950F0BC3F
S214004E20704700EB4002160101258D40134A95514C
S214004E30D5E7114F460035182A013A44956801F126
S214004E408042083A92004FF00F0C0CFA02FC25EA5A
S214004E500C0504FA02F22A4335182E013744BA60CC
S214004E60D3E700EB40000201012303FA01F1014BF6
S214004E709950D4E70CA0004600A000400CA00044C7
S214004E8081F00101024B03449B001960704700BF8C
S214004E90A001F11010B5044601214FF4AA40FEF718
S214004EA037FC23786178A27842EA012242EA03625C
S214004EB00B4B1A6000221A62DA625A634FF0004205
S214004EC0DA664FF0FF329A66064A4FF40071C2F86F
S214004ED08011E3785B01DBB282F80933116010BD04
S214004EE000200E4000E100E0F8B50C46C3B20125F4
S214004EF09D400B68254E470007EB000C4FEA0C114F
S214004F003144C1F88030637BC1F8883094F80AC019
S214004F10E37A1B0543EA0C4394F80CC043EA4C536F
S214004F20C1F8843022F00302C1F89820B566FFF776
S214004F3008F9F36E2B43F366237A13B1736B2B4396
S214004F407363637A1BB1114AD36A2B43D3620F4B48
S214004F501B68227922B1D243120262F47F421340C8
S214004F6062790AB143EA0223A2791AB1D24362F007
S214004F70FF021340E27902B11343044A1360044B64
S214004F801D60D563FFF7E3F8F8BD00BF00200E40B4
S214004F9028200E44F8B50446C3B201259D40FFF70D
S214004FA0D0F80B4B1F6E9E6A04EB44042201134498
S214004FB0D3F88C40FFF7CBF82F40C4F30A103542E5
S214004FC003D100B917B9013000E00020F8BD00BFDA
S214004FD000200E40064B0B4003F58073B0FBF3F247
S214004FE003FB12000002B0FBF3F000EB0220704758
S214004FF0F8FF0100064B984201D00020704710B51C
S21400500004460448FEF750FDE168FFF7E3FF10BDD5
S21400501000A0044090171A00836813F0100FFBD00E
S214005020036C13F0010F03D1436C13F0400FFBD158
S21400503081627047054B5A685B68054B41F67132D2
S2140050401A649A6822F001029A60704700300E4097
S21400505000000E40034B9A6822F001029A6000227C
S2140050601A64704700000E400C4B0D4AD26912F0CD
S214005070010F02D00BB1013BF7E763B1084B186193
S2140050800122DA60DB6913F0040F01D100207047BB
S2140050904FF0FF3070476FF0020070478096980020
S2140050A000000E4019B130B40D46002110E000207B
S2140050B07047013B104AD26912F0010F01D0002B55
S2140050C0F7D19BB10C4BDB6913F0020F11D12046D0
S2140050D0A94208D2041D0268074B9A6101310822D2
S2140050E0DA60064BE6E7002030BC70476FF002003F
S2140050F0FAE76FF00100F7E700000E408096980090
S2140051002DE9F04780460E46244B196C1FFA81F9AC
S21400511041F671311964224948684968996841F036
S21400512001019960970800231D4614E01B498A6810
S21400513022F001028A60B9F1000F2CD00A46002145
S214005140116428E051463046FFF7ACFF0346B8B975
S214005150554406EB8A06BD4212D208EB850420466B
S214005160FFF782FF03460028E0D1C4F30A04C4F523
S2140051700064A408A7EB050AA245E3D3A246E1E72C
S21400518006498A6822F001028A60B9F1000F02D04F
S2140051900A46002111641846BDE8F08700000E405C
S2140051A000300E4010B4304B196C89B241F67132A3
S2140051B01A642E4A546852689A6842F001029A604D
S2140051C018610122DA60DB6913F0040F0CD0264A5E
S2140051D0936823F001039360002938D01346002219
S2140051E01A644FF0FF3034E01F4B0222DA60204B87
S2140051F01D4AD26912F0010F02D00BB1013BF7E74E
S214005200194AD26912F0020F0BD0174A936823F09E
S2140052100103936001B3134600221A646FF0010085
S21400522017E05BB9104A936823F001039360B1B1AD
S214005230134600221A646FF002000AE00A4A9368D6
S21400524023F00103936069B10020106401E04FF081
S214005250FF305DF8044B70476FF00100F9E76FF020
S2140052600200F6E70020F4E700000E4000300E4093
S2140052708096980008B5FFF743FF08BD014B012252
S2140052809A60704700500E4010B4174B5C680023BD
S21400529018460DE0B2F5007F01D141F48071134A43
S2140052A052F83320224202D0214200D1104301336B
S2140052B0082B16D80D4A02EBC30251680C4A126836
S2140052C012F0040FEBD1094A52F83320B2F5806F82
S2140052D0E3D0DFD9B2F5006FDFD0B2F5803FDED184
S2140052E0DBE75DF8044B704700500E4030C7040003
S2140052F0E841E00F10B44A790B784C7843EA84030F
S2140053008C7843EA8413CC7843EA04130C7943EA96
S214005310C42343EA02338A7943EA42430430000155
S214005320024A13505DF8044B704700BF002004404B
S214005330014B1860704700BF0000844203780BB32F
S2140053400123427802B3042213438278F2B110227A
S2140053501343C278E2B120221343027943EA0223C0
S214005360427943EA02338279A2B14FF400421343F2
S214005370C27943EA0243027A72B900221343084A0A
S214005380136070470023DCE70022DDE70022DFE73A
S2140053900022E1E70022EAE74FF40032EEE700BF22
S2140053A0002004400B4A53699B0003F03C0311693C
S2140053B0C1F381110B438370136903F03F034370FD
S2140053C0936903F0F003D269C2F303121343037028
S2140053D0704700BFD0FF0FE041F080018165704745
S2140053E070B5054616461C46084641B1202C22D00C
S2140053F009D9402C1DD0602C1AD1042205E00F4894
S214005400FEF752FBF2E79CB9102206FB02F25308A5
S21400541003EB4010B0FBF2F02038094B03EAC00063
S2140054202B6823F060032B602B681C432C6068619C
S21400543070BD0622E9E70822E7E700BF4041050005
S214005440F8FF7F002DE9F8438146214808409AB9C5
S214005450202B37D0402B0AD023B140244FF0000831
S21400546001260DE010244FF00008012608E08024F5
S2140054704FF00008032603E080244FF000080126C2
S21400548000F5807006FB00F6002532462B4648469F
S214005490294645F00DFC074632462B464846294627
S2140054A045F006FC04FB07F704FB03F308FB023891
S2140054B0A4FB0201414432462B4645F0F9FB384432
S2140054C0BDE8F88320244FF000080126D8E700BF87
S2140054D0F8FF7F0038B50446036813F0010F0BD1C0
S2140054E000250648FEF7E0FA2368616903F06003CA
S2140054F02A46FFF7A7FF38BD0125F2E74041050021
S214005500CB435B0003F00A03C360C1607047000032
S21400551040F6AA63C3600023036041F205024260BE
S21400552083604361C364134A826403664367836788
S214005530C367114B98420BD003F58063984207D09F
S21400554003F58063984203D003F58063984201D147
S214005550002303650023836503F1804303F582334C
S214005560984203D003F50063984201D10023C36537
S214005570704700BFF9FF01000000014038B505463E
S2140055800C46FFF7C5FFA37C1BB12B6843F0804396
S2140055902B60E37C33BB637B228A1343E28913438D
S2140055A06B60237BA26861682846FFF719FF637D5E
S2140055B01BB12B6843F480332B60A37D1B0703F0DD
S2140055C0E043E27D120502F4E00213432B666B6FA4
S2140055D023F030036B676B6F227E13436B67237871
S2140055E0EB6038BD217D2846FFF7F6FED3E703695A
S2140055F013F0400FFBD041637047000038B50446F7
S2140056003EF0C5FA044D0FCC0FC594E80F0085E8B0
S2140056100F00002038BD00BF6820002047F6FF734B
S2140056209A4276D0022976D8F0B40D463C4B03EB6E
S214005630C1008478012CB8BF0124204613F831300D
S214005640012B24D0364B03EBC1035C68002C64D0DE
S214005650B4F90060964204DBB4F90260964200DCBE
S2140056601646A388FF2B26D02827C82300223546B7
S2140056709B1B93FBF7F313441BB2294A02EBC101B1
S2140056804E78721E12B29A422BDB1A4629E0244B41
S21400569003EBC101C878001B01E0013800B238B145
S2140056A01F4B03EBC5035B6833F910309342F4DC01
S2140056B02044C0B22BE0B4F90630B4F908700122D9
S2140056C0D5E703F5FA731749A1FB03139B090132CB
S2140056D012B21746B2420FDA04EBC2018988994229
S2140056E00AD304EBC2018F68B1F9063003FB0573D9
S2140056F0002BE6DA0023E4E77A1E04EBC202928867
S2140057009A4200D31A46824200D31046C0B2F0BC7A
S2140057107047FF207047002070470020F7E700BF63
S21400572068200020D34D621002296ED83C4B13F837
S2140057303130012B2DD0002A69D0F0B5384B03EB61
S214005740C1035C68002C64D0251D64D09646B4F96D
S2140057500200074682423ADD314B03EBC103DB7899
S214005760934232D92E4B03EBC1014B7803F1FF3C39
S2140057705FFA8CFCA188FF292AD0002363452CD22F
S214005780591C35F8316091B28E4226D30133DBB214
S214005790F4E7234B03EBC103DB78934200D21A46AF
S2140057A01F4800EBC10080780128ACBF121A02F136
S2140057B0FF32D2B21B1A9A4200DD0022184B03EBCE
S2140057C0C1014B6833F912007047B4F90000F0BD10
S2140057D0A3F1020C5FFA8CFCCFE74FF47A7202FB5F
S2140057E00EF205EBC3035968521AB3F9021001EB27
S2140057F0D17302EB630393FBF1F3B4F900209A42F2
S2140058000BDB9F42E3DC18B2E1E706487047064828
S21400581070470448DBE70348D9E71046D7E700BFE0
S214005820682000200080FFFF0CFEFFFF08B503483D
S214005830FFF7E4FE01203EF0F1F908BD78C704004A
S21400584000B587B0002301930393049305930D4B93
S214005850029306228DF80C2001238DF80D300C21C2
S2140058608DF80E108DF812208DF813300D238DF85C
S214005870143001A94FF0FF303EF096FA07B05DF8FD
S21400588004FB00BF006A180010B584B0054B6C46D8
S2140058900FCB84E80F002046FFF7B2F9002004B0D3
S2140058A010BD00BF30C8040010B582B000240094BC
S2140058B0ADF8044002238DF805306846FEF7DEFF9B
S2140058C0204602B010BD000030B587B001AC144DC4
